:020000040800F2
:10000000109500209D010008A34A00080F43000836
:10001000A14A0008CD0A00082F6F00080000000068
:10002000000000000000000000000000A34D0008D8
:100030004B0C000800000000A14D0008A54D000871
:10004000B7010008B7010008B7010008B7010008B0
:10005000B7010008B7010008B7010008B7010008A0
:10006000B7010008B7010008B7010008B50B000888
:10007000B7010008C10B0008B7010008B70100086C
:10008000B7010008B7010008B7010008B701000870
:10009000BD6E0008B7010008B7010008B7010008ED
:1000A000B70100083D4E0008B7010008B70100087D
:1000B000494E0008554E0008614E0008B70100087F
:1000C000B7010008B7010008B7010008B701000830
:1000D000B7010008B5580008B7010008B7010008CB
:1000E000B7010008B7010008B70100086D4E00080D
:1000F000914E0008854E0008794E00089D090008C1
:10010000000000000000000000000000B70100082F
:10011000E5520008B7010008B7010008B701000860
:10012000CD0B0008B7010008B7010008B7010008AF
:10013000D90B0008B7010008000000000000000013
:10014000B7010008B7010008B7010008000000006F
:10015000000000000000000000000000000000009F
:100160000000000000000000B7010008B70100080F
:10017000B7010008000000000000000000000000BF
:1001800000000000B7010008DFF80CD000F066FBAB
:1001900000480047ED84000810950020064880477D
:1001A00006480047FEE7FEE7FEE7FEE7FEE7FEE75C
:1001B000FEE7FEE7FEE7FEE7214E000889010008A2
:1001C0002DE9F05F0546002092469B46884606468C
:1001D000814640241BE0284641464746224600F01F
:1001E00020F853465A46C01A914110D3114618467A
:1001F000224600F0FCF92D1A67EB01084F46224613
:100200000120002100F0F3F917EB00094E41201EF8
:10021000A4F10104DFDC484631462A464346BDE8E6
:10022000F09F202A04DB203A21FA02F000217047D7
:1002300021FA02F3D040C2F120029140084319464E
:10024000704740EA01039B0703D009E008C9121F69
:1002500008C0042AFAD203E011F8013B00F8013B80
:10026000521EF9D27047D2B201E000F8012B491EAC
:10027000FBD270470022F6E710B513460A46044643
:100280001946FFF7F0FF204610BD2DE9FE4F8046CE
:1002900081EA0300C00F0C46009021F0004123F0DA
:1002A0000045B8EB0200A94105D2404621469046E0
:1002B0001C460B46024623F00040104347D0270D52
:1002C000C7F30A00C3F30A510290401A0190402874
:1002D0006BDAC3F3130040F4801B0098924620B100
:1002E0000023D2EB030A63EB0B0B01985946C0F1D4
:1002F0004002504600F07BF906460D4650465946EE
:10030000019A00F083F910EB08006141002487EAAC
:10031000115284EAE7731A4340D0009A62B3019AFB
:10032000012A4FEA075215DC001B61EB02014FF076
:10033000004202EA0752CDE90042001C41F580115B
:1003400032462B4600F0A1F903B0BDE8F08F4046DD
:100350002146F9E7001B61EB0201001C41F5801307
:1003600000185B412018A2F5001747EB030140EA93
:10037000D570B6196D4111E06D084FEA360645EAB1
:10038000C0754FEA0752001B61EB0201001C41F5EA
:10039000801149084FEA30000019514132462B467E
:1003A00003B0BDE8F04F00F061B9009801224000B1
:1003B0000023D0EB020263EBE073009821464FEA82
:1003C000E074B8EB000061EB0401E9E783F000435F
:1003D0005BE781F0004158E72DE9FE4F81EA030415
:1003E00004F0004421F0004100944FF0000B23F092
:1003F000004350EA01045ED052EA03045BD0C3F329
:100400000A54C1F30A552C44A4F2F3340194A0FB1E
:100410000254C1F3130141F48011C3F3130343F4F5
:10042000801301FB024400FB034E840A970A44EA4E
:10043000815447EA8357A4FB076802958D0A05FBA0
:1004400007854FEA932C04FB0C542705029D4FEAC5
:10045000065847EA1637B5EB08056EEB070C870E12
:10046000920E47EA811742EA8312A7FB0201B6EB1C
:100470000B0164EB00042B0D43EA0C335E1844EBD4
:100480001C50DA465146E7FB0201C5F313044FEA5C
:100490000B3343EA14534FEA0432019C43EA060348
:1004A000A4F10C040294009CCDE900B400F0EDF836
:1004B00003B0BDE8F08F00200146F9E72DE9F04DCB
:1004C00081EA030404F0004B21F0004514464FF08C
:1004D000000A23F0004150EA050220D054EA01024C
:1004E0001DD0C5F30A570246C5F31303C1F3130029
:1004F000C1F30A5640F4801543F48013A7EB0608B5
:10050000101BD64608F2FD3873EB050002D308F144
:10051000010801E092185B41B8F1000F03DA0020F6
:100520000146BDE8F08D00204FF480110646844658
:100530000EE0171B73EB050705D3121B63EB0503D6
:1005400006434CEA010C49084FEA300092185B411F
:1005500050EA0107EDD152EA030012D082EA04000A
:1005600083EA0501084305D0101BAB4106D20122E6
:10057000002306E000224FF0004302E06FF001028A
:1005800053101AEB06004CEB085110EB0A0041EB3C
:100590000B01BDE8F04D00F069B80EB5C10F80EA5F
:1005A000E0700844CA07002140F233438DE80E0092
:1005B0000A460B4600F069F803B000BDC1F30A52C9
:1005C00010B5C1F3130140F2FF3341F480119A4298
:1005D00001DA002010BD40F233439A42A2F23342C6
:1005E00003DC5242FFF71DFE10BD904010BD202AD3
:1005F00004DB203A00FA02F1002070479140C2F17A
:10060000200320FA03F3194390407047202A06DBA9
:10061000CB17203A41FA02F043EAE07306E041FAD0
:1006200002F3D040C2F120029140084319467047BE
:1006300010B541000CD0C0F3C751962908DC7E29C3
:1006400009DC06DB410204D000F0004040F07E509F
:1006500010BD002010BDC1F19604C4F1200100FAC4
:1006600001F1E04000F00CF9A04010BD10B5141EDF
:1006700073F1000408DA401C41F1000192185B415B
:100680001A4301D120F0010010BD2DE9F04D924632
:100690009B4611B1B1FA81F202E0B0FA80F2203249
:1006A0009046FFF7A4FF04460F4640EA0A0041EADD
:1006B0000B0153465A46084313D0114653EA010032
:1006C00019D0C8F140025046FFF7ABFD05460E4673
:1006D000504659464246FFF78AFF084305D001209D
:1006E00004E020463946BDE8F08D0020054346EA87
:1006F000E0762C4337430A986305E40AA0EB080030
:100700000022FD0A44EA47540A3002D5002001467F
:10071000E9E7010510196941DDE90845001969415A
:10072000BDE8F04DA2E700002DE9F041054621F0BB
:1007300000400C46284309D0C4F30A5040F233412C
:10074000884205DD28462146BDE8F0812846FBE7C2
:1007500040F2FE31884210DC0CDB4FEA043040EA04
:10076000155050EA053105D0104804F0004101430E
:100770000020E9E700200146E6E7A0F233404642C8
:10078000C6F1400228462146FFF731FF074688465A
:10079000284621463246FFF744FD43463A46FFF7D6
:1007A00065FF3246BDE8F041FFF721BF0000F03F92
:1007B00010B500F0004420F00040C20DC0F3160058
:1007C00040F400007F2A07DA7D2A00DA7D22763A9B
:1007D00000FA02F1002008E0962A09DCA2F1760175
:1007E00000FA01F1C2F19602D04000F049F801E0B0
:1007F000963A9040002C00D0404210BD30B5041E07
:1008000071F1000404DB4FF00044404264EB01014D
:10081000141E73F1000405DB1C464FF000435242E6
:1008200063EB04038B4208BF824230BD30B5041E27
:1008300071F1000404DB4FF00044404264EB01011D
:10084000141E73F1000405DB1C464FF000435242B6
:1008500063EB0403994208BF904230BD064C074D3C
:1008600006E0E06840F0010394E807009847103480
:10087000AC42F6D3FFF78CFCB8930008F89300085D
:100880000029A8BF7047401C490008BF20F00100A4
:10089000704710B4B0FA80FC00FA0CF050EA010482
:1008A00004BF10BC704749B1CCF1200421FA04F414
:1008B00011FA0CF118BF012121430843A3EB0C01ED
:1008C000CB1D4FEA00614FEA102042BF002010BC50
:1008D000704700EBC35010440029A4BF10BC704700
:1008E000401C490008BF20F0010010BC70470EB545
:1008F00040F2334102910021CDE900110A460B4636
:10090000FFF7C3FE03B000BD70B5C1F30A5201F09A
:1009100000450024C1F3130140F2FF3341F480117C
:100920009A4201DA002070BD40F233439A42A2F2AB
:10093000334203DC5242FFF774FC00E090402C434A
:10094000F1D0404270BD70B58C1810F8015B15F005
:10095000070301D110F8013B2A1106D110F8012B31
:1009600003E010F8016B01F8016B5B1EF9D12B0756
:1009700005D40023521E0DD401F8013BFAE710F80C
:10098000013BCB1A921C03E013F8015B01F8015BF9
:10099000521EF9D5A142D8D3002070BD014800F005
:1009A000D9BB0000E80100100146406A026C12F059
:1009B000500F03D0806B026B08461047016C41F466
:1009C000007101640168C96811F4406F0CD1417E67
:1009D00051B9016C21F480710164016CC90403D424
:1009E000016C41F00101016400F08CBB406A016CB4
:1009F00041F040010164416C41F00401416400F0A8
:100A0000A8BB406A00F0A4BB70B5044600688168CA
:100A100001F00301012926D10168C90723D08168AB
:100A200001F00D01012910D1816841F002018160BE
:100A300021680320086001F04FFB05460FE000BF6E
:100A400001F04AFB401B022809D9206C40F010003D
:100A50002064606C40F001006064012070BD20687B
:100A60008068C007ECD1002070BD000070B504465E
:100A70000068816801F00301012902D10168C907FA
:100A800020D18168104A11420DD1816841F00101E5
:100A9000816001F021FB05460FE000BF01F01CFB67
:100AA000401B022809D9206C40F010002064606CC3
:100AB00040F001006064012070BD20680068C04300
:100AC000C007EBD1002070BD3F000080FEE7002092
:100AD000704700207047000010B500220449054807
:100AE00004F0E0FF0449034804F0D6FF002010BDE5
:100AF0001C0C00107005001034080010002207F0D4
:100B00004BB8000070B50D4604460146054804F098
:100B1000C3FF044804F0A4FF20462968FFF7EEFF56
:100B2000002070BD70050010094A10B5D2F8B82237
:100B3000D2F814220AB1012010BD0A460146044829
:100B400004F0B0FFBDE81040014805F009B800000E
:100B50007005001010B5446A204600F0DBFF01204C
:100B6000207110BD10B5446A204600F0AFFF01208F
:100B7000207110BD10B5446A206940F00400206166
:100B8000204600F0C9FF0120207110BD10B5446A55
:100B9000206940F004002061204600F099FF012008
:100BA000207110BD406A00F0B6BF10B5406A00F079
:100BB0008EFF10BD014801F0DBB8000038020010C4
:100BC000014801F0D5B8000018030010014801F0F9
:100BD000CFB800007C020010014801F0C9B8000045
:100BE000C00200100B4B01681422994207D20A4B35
:100BF0001944B1FBF2F189000164084908E0054B92
:100C00005B421944B1FBF2F18900016401490839E2
:100C1000C163704708040240F8FFFDBF00000240B6
:100C200030B590F840500124AC40C56B6C6004684E
:100C300063604368102B036803D099600068C2604A
:100C400030BD9A600068C16030BD70477047704722
:100C50007047704770470000F0B5002302684FF0FE
:100C6000A04C3E4C94B01F46624501D100940DE06B
:100C7000A24202D1CDF800C008E0394D394EAA4257
:100C800001D1009602E0B24214D1009590F83C5098
:100C9000012D12D0012580F83C5095686D0753D482
:100CA000009DAD686D074FD4624501D0A24206D1C8
:100CB0002D4A05E0012014B0F0BD0220FBE72B4ACD
:100CC0000D6840F61F7425B3956890F8306025F4E0
:100CD000604545EA46354E68354395600568AE681F
:100CE00006F00306012E02D12D68ED0731D1009DDB
:100CF000AD6805F00305012D03D1009D2D68ED07BA
:100D000027D10D6889680D439168A1430D43956013
:100D10001FE0916821F46041916001688D6805F0E1
:100D20000305012D02D10968C90712D1009989680C
:100D300001F00301012903D100990968C90708D10D
:100D40009168A143916004E0016C41F020010164CD
:100D5000012380F83C701846ADE700000001005008
:100D60000004005000050050000300500007005030
:100D7000F0B594B00024009490F83C202546012A58
:100D800019D0012780F83C7003689A6852077CD418
:100D90004A681F26052A11D2D3F830C002EB42025E
:100DA000520096402CEA060C0E6896404CEA060C5F
:100DB000C3F830C035E0022014B0F0BD0A2A0FD2CB
:100DC000D3F834C0521F02EB4202520096402CEA84
:100DD000060C0E6896404CEA060CC3F834C020E0BE
:100DE0000F2A0FD2D3F838C00A3A02EB420252005F
:100DF00096402CEA060C0E6896404CEA060CC3F8A6
:100E000038C00EE0D3F83CC00F3A02EB4202520069
:100E100096402CEA060C0E6896404CEA060CC3F885
:100E20003CC00268936813F00C0F4FF0070374D1B5
:100E3000D1F800E0BEF10A0F10D39669AEF10A0EA8
:100E40000EEB4E0C03FA0CFE26EA0E06D1F808E073
:100E50000EFA0CFE46EA0E0696610FE0D2F814C0B8
:100E60000EEB4E0603FA06FE2CEA0E0CD1F808E053
:100E70000EFA06FE4CEA0E0CC2F814C002684E6967
:100E8000D2F80CC0CCF3C10C00E0FDE04FEA4C0CF2
:100E900006FA0CF6D1F810E0DFF848C2BEF1010FF7
:100EA00042D0BEF1020F4DD0BEF1030F58D0BEF1BB
:100EB000040F63D0166E91F800C006F0F846B6EB4A
:100EC0008C6F03D1166E26F0004616660268566EC9
:100ED00091F800C006F0F846B6EB8C6F03D1566E61
:100EE00026F0004656660268966E91F800C006F03D
:100EF000F846B6EB8C6F03D1966E26F000469666E8
:100F00000268D66E91F800C006F0F846B6EB8C6F1A
:100F100003D1D66E26F00046D6660268966806F0C3
:100F20000306012E3AD136E0D2F860E00EEA0C0E4C
:100F300091F800C046EA8C664EEA060E4EF0004676
:100F40001666EAE7D2F864E00EEA0C0E91F800C0EB
:100F500046EA8C664EEA060E4EF000465666DCE720
:100F6000D2F868E00EEA0C0E91F800C046EA8C66F2
:100F70004EEA060E4EF000469666CEE7D2F86CE0DA
:100F80000EEA0C0E91F800C046EA8C664EEA060E98
:100F90004EF00046C0E71668F6077AD1CE68012EFB
:100FA00006D052F8B03F0E78B740BB43136021E043
:100FB00052F8B06F91F800C007FA0CF73E43166084
:100FC0000A680A2A0BD30668B769093A02EB42029B
:100FD00093409F438B6893401F43B7610AE00768C3
:100FE0007E69521C02EB420293409E438B68934001
:100FF0001E437E6103684FF0A0473B4EBB4201D0C9
:10100000B34201D1394A00E0394A0968102904D0B5
:10101000112907D012290AD03BE0D2F808C04FEAC4
:101020000C2C08E0D2F808C04FEACC1C03E0D2F840
:1010300008C04FEA4C2CBCF1000F2ADBBB420DD09C
:10104000B34201D100970CE02A4EDFF8ACC0B342A6
:1010500002D1CDF800C004E0634501D1009600E064
:1010600000959E6806F00306012E02D11E68F60761
:101070000AD1009E8EB1B66806F00306012E0CD18F
:10108000009E3668F60708D0016C41F0200101642B
:10109000012480F83C5020468EE6102908D0112902
:1010A0001AD01229F5D1916841F480019160F0E7DE
:1010B000BB42EED1916841F4000191600F49104AA2
:1010C0000968B1FBF2F101EB8101490000E0491E22
:1010D00000910029FBD1DCE7BB42DAD1916841F0F5
:1010E0008071E3E700F0FF8300010050000300502F
:1010F00000070050000400500005005020000010C0
:1011000040420F000E4B01220E49984204D18A63DF
:10111000C868401CC86070470B4B984204D1CA6332
:101120000869401C08617047084B9842FBD18878D9
:101130000228F8D00128F6D00028F4D04A6370477E
:10114000480100102402002098010010E80100105E
:10115000704770472DE9F041044600680168C34FAD
:10116000C34DC44E49074FF0A04802D54168490716
:1011700005D40168090761D5416809075ED5216C6E
:10118000C90603D4216C41F40071216441468842B0
:1011900001D0B04202D1D1F8082300E03A6812F041
:1011A0001F0F1BD0884201D0B04202D1D1F80823D2
:1011B00000E03A6802F01F02052A0FD0884201D0F1
:1011C000B04202D1D1F8082300E03A6802F01F02D1
:1011D000092A03D0884201D0A84201D1C16803E0A6
:1011E000B04200D02946C968C26812F4406F1FD1CE
:1011F00089041DD4016809071AD5816849070FD4ED
:10120000416821F00C014160206C20F48070206462
:10121000206CC0040CD4206C40F00100206407E076
:10122000206C40F010002064606C40F001006064AD
:101230002046FFF767FF21680C20086020680168DE
:10124000890602D54168890605D4016849066ED52C
:10125000416849066BD5216C41F400512164424636
:10126000904201D0B04202D1D2F8081300E03968B0
:1012700011F01F0F1CD0904201D0B04202D1D2F821
:10128000081300E0396801F01F01052910D041461C
:10129000884201D0B04202D1D1F8083300E03B6867
:1012A00003F01F03092B03D0884201D0A84201D1CB
:1012B000C16803E0B04200D02946C968C36C13F08E
:1012C000C00F56D18B0105D5C36813F4406F50D1C0
:1012D00089044ED4016849064BD51146884201D095
:1012E000B04202D1D1F8082300E03A6812F01F0F93
:1012F0001BD0884201D0B04202D1D1F8082300E0CF
:101300003A6802F01F02062A0FD0884201D0B0428C
:1013100002D1D1F8082300E03A6802F01F02072A40
:1013200003D0884201D0A84202D1C16804E026E07F
:10133000B04200D02946C96889021AD481680907D9
:101340000FD4416821F060014160206C20F480508E
:101350002064206CC0050CD4206C40F00100206497
:1013600007E0206C40F010002064606C40F0010049
:1013700060642046FFF76BFC2168602008602068ED
:10138000016809060CD54068000609D5206C40F4B8
:1013900080302064204600F097F9216880200860A2
:1013A00020680168C9050DD54068C0050AD5206CC4
:1013B00040F4003020642046FFF74BFC21684FF4D6
:1013C000807008602068016889050DD54068800537
:1013D0000AD5206C40F4802020642046FFF73AFCB8
:1013E00021684FF40070086020680168C90622D5A2
:1013F0004168C9061FD5616B01290ED0404501D057
:10140000B04201D11C4901E0184908398A68D20666
:1014100028D0886800F4404050B1206C40F48060CF
:101420002064606C40F0020060642046FFF791FE8B
:1014300021681020086020680168490510D54168BE
:1014400049050DD5216C41F480412164616C41F066
:10145000080161644FF4806101602046FFF7F8FBEA
:10146000BDE8F081C068C007D6E70000080700505B
:10147000000400500001005000030050F0B54FF090
:10148000000695B0040037463546009605D0206C1E
:10149000C00648D4206C18B133E0012015B0F0BD6F
:1014A0006564E564A56484F83C50204600F00EF9BC
:1014B00020688068C00024D42046FFF7A5FA0646BD
:1014C000206CC0061DD4E6B9206C20F4885040F092
:1014D000020020642068816821F04051816020680A
:1014E000816841F0805181606E486F490068B0FBAF
:1014F000F1F000EB8000400000E0401E009000286A
:10150000FBD120688168C90002D5806880000AD5B7
:10151000206C20F0020040F010002064606C40F06D
:10152000010060640126206CC00676D4002E74D1C0
:1015300020688168490770D4216C21F4807141F0E2
:10154000020121644FF0A04E584B704501D09842E3
:1015500001D1574A00E0574ADFF85CC1574970454E
:1015600001D100930EE0984202D1CDF800E009E0ED
:10157000884202D1CDF800C004E0604501D100915D
:1015800000E00095836803F00303012B02D100689B
:10159000C00710D1009840B1806800F00300012816
:1015A00003D100980068C00705D19068636820F4F3
:1015B000403018439060D4E902201043626B012A46
:1015C00002D04FF4805300E00023627E43EA4233AE
:1015D000184394F820303843012B0AD1F2B1226C21
:1015E00022F0020242F020022264626C42F0010208
:1015F0006264A26A012A21D023688B4201D063452C
:1016000018D14FF430774FF4E071BA4213D04FF451
:1016100080739A420AD139460DE039E0A28C284BFA
:1016200003EB4242024342F48030E2E78A4201D1B6
:10163000194600E011460143E06A084321688A68C0
:1016400012F00C0F0BD1CA6844F202039A43CA602D
:10165000217E94F83020890341EA42010843226840
:10166000D168184B19400143D160206901282068D6
:10167000016B21F00F0102D1E269521E1143016397
:101680006564206C20F0020040F00100206406E058
:10169000206C20F0020040F010002064012630464B
:1016A000FCE600002000001040420F000001005046
:1016B00000030050000700500005005000040050D7
:1016C0000000FEFF07C0F0FF704700002DE9F04763
:1016D00086B0054614216846FEF7CCFD594B80269E
:1016E000D5F800C0196800240322B7005648491CE9
:1016F0004FF400694FF4405ABCF1A04F07D0DFF817
:101700004C81C4455FD11960012930D037E01960A0
:10171000012907D1416941F080514161416901F0DE
:1017200080510591416941F4003141614069009265
:1017300000F400300590CDE9012469464FF0904057
:1017400000F0DCFBDFF80C8141494046E0E8021480
:10175000A0E8D00204604046C8F81CA02CE000BFFE
:10176000C5F83880C8F8245006B0BDE8F087416954
:1017700041F080514161416901F080510591416919
:1017800041F4002141614069009200F4002005907D
:10179000CDE901246946304800F0B0FBDFF8B480A1
:1017A0002E4908F144084046E0E80214A0E8D002BF
:1017B00004604046C8F81CA000F02EFB0028CFD0E3
:1017C000FFF744FACCE726498C45CDD1416941F079
:1017D00000514161416901F000510591416941F4B5
:1017E000801141614069694600F4801005904FF412
:1017F000F8408DE815001B4800F080FBDFF85480AE
:10180000164908F1880840465031E0E805142021C7
:1018100060E80391090280E8D0004046C8F81C1037
:1018200000F0FAFA08B1FFF711FAC5F83880002283
:1018300011462F20C8F8245000F0B4FC2F2000F0EF
:10184000A3FC91E71C0000100010024000010050B2
:101850000800024038020010000800480804024056
:1018600000040050000C00482DE9F0470D460446E6
:1018700041693F4A00684FF000084FF0A043082933
:1018800005D0984201D0904203D13A4902E008269F
:1018900014E039498E68F6060CD0896801F440419D
:1018A00059B1206C40F02000206484F83C80012075
:1018B000BDE8F087C168C907F2E70C26984201D05D
:1018C000904202D1D3F8081302E02B49083109688D
:1018D00011F01F0F04D0984202D02849884201D14C
:1018E000C76803E0904200D11946CF6800F0F4FBCE
:1018F000814610E0681C0ED02DB100F0EDFBA0EB8E
:101900000900A84207D9206C40F00400206484F844
:101910003C800320CCE7206800683042EAD0206C8D
:1019200040F4007020642068C16811F4406F1AD13F
:10193000B90418D40168090715D581684907216CD5
:101940000AD421F480712164216CC9040BD4216C68
:1019500041F00101216406E041F020012164616C45
:1019600041F001016164790400D4066000209FE722
:101970000001005000030050000700500004005018
:101980002DE9F05F044600688B469246816849075E
:101990007ED494F83C1001290ED001214FF0A048CC
:1019A000DFF81091444F84F83C10404501D0B84214
:1019B00005D1D8F8080304E00220BDE8F09FD9F86B
:1019C00000004FF0000610F01F0F01D0012504E0C9
:1019D0002046FFF74BF8050002D084F83C6066E033
:1019E000206C40F60161884340F4807020642068D8
:1019F0004146884201D0B84202D1D1F8082301E023
:101A0000D9F8002012F01F0F04D0884202D02B4AD0
:101A1000904207D1216C21F480112164C0688001BB
:101A20000ED413E0226C42F480122264B84201D139
:101A3000C86802E021480C30006810F0007F05D033
:101A4000206C20F4005040F480502064206CC004CE
:101A500004D5606C20F00600606400E0666484F8E1
:101A60003C60A16B16488862A16B1648C862A16BE6
:101A70001548086321681C2008602068416841F00F
:101A8000100141602068C16841F00101C16000E0BF
:101A90000CE0216853465A464031A06B00F0E3F950
:101AA0002068816841F00401816000E00225284639
:101AB00083E70000080700500001005000040050B8
:101AC000A9090008030A0008ED09000870477047DB
:101AD000704770B54379012B1AD001264671022355
:101AE000037105682C6840F6FE7393409C43D1E96E
:101AF00000310B43934023432B6001680B68C024E3
:101B00009440A3430B60067100214171084670BDEB
:101B1000022070BD70477047704770B5040003D055
:101B20002079002510B105E0012070BD65712046C7
:101B300000F008F8022020712561012020710020AA
:101B400070BD0000F0B587B0054614216846FEF769
:101B500091FB1E492868884236D11D49C86940F06A
:101B60000050C861C86900F000500590486940F411
:101B7000003048614869102600F4003005900320C9
:101B8000CDE900600027694602974FF0904000F0D1
:101B9000B5F9114C0F4884E8C1008020E060800056
:101BA0002061800060612020A0610002E061204689
:101BB00000F032F908B1FFF749F80848016841F42C
:101BC00000510160AC60656207B0F0BD0074004078
:101BD00000100240300002401803001000000140D5
:101BE0002DE9F04104460D4617466179002206981A
:101BF000012920D00126667102212171F5B1D4F8A6
:101C00000CC03149CCF82810D4F80CC02F49CCF8BE
:101C10002C10D4F80CC02E49CCF830102168D1F823
:101C200000C04CF0805CC1F800C090B3042834D0F0
:101C3000082837D134E00220BDE8F081D4F808C08C
:101C40002449CCF82810D4F808C02349CCF82C102B
:101C5000D4F808C02149CCF830102168D1F800C070
:101C60004CF4805CC1F800C020B1042805D00828DD
:101C700008D105E02268083204E022680C3201E055
:101C8000226810322068016841F400510160A068A8
:101C90000EE0FFE72268143204E02268183201E007
:101CA00022681C322068016841F000510160E06840
:101CB000394600F0D8F80020607120680168AE4015
:101CC000314301600020B7E7650B0008AB0B00084B
:101CD0008D0B0008550B0008A50B0008750B0008BC
:101CE00010B590F821100022022905D0042181634B
:101CF00080F82020012010BD01680B6823F00E033E
:101D00000B6001680B6823F001030B6090F8403012
:101D1000C46B012101FA03F3636080F8211080F89D
:101D20002020002010BD10B590F8211000240229B9
:101D300003D004218163012418E001680A6822F0BD
:101D40000E020A6001680A6822F001020A6090F837
:101D50004020C36B012101FA02F25A6080F8211081
:101D6000002180F82010416B01B18847204610BD4A
:101D7000F0B4C16B0D6801680C68066C042202FAAD
:101D800006F32B420FD063070DD50B689B0603D4D7
:101D90000B6823F004030B6090F840108A40C16B7D
:101DA0004A60C16A1BE0022303FA06F72F424FF094
:101DB000000C4FF0010216D0A70714D50C68A4063A
:101DC00005D40C6824F00A040C6080F8212090F8F7
:101DD00040108B40C16B4B6080F820C0816A0029A5
:101DE00018D0F0BC08470823B3402B4212D0230779
:101DF00010D50B6823F00E030B6090F84010C36BF6
:101E000002FA01F15960826380F8212080F820C035
:101E1000016BE4E7F0BC704770B5040021D00220EC
:101E200084F821002268116843F6F0708143D4E9F8
:101E300001031843D4E903352B431843636918435E
:101E4000A3691843E3691843084310602046FEF76E
:101E5000C9FE0020A063012184F8211084F820002D
:101E600070BD012070BD70B5044690F820000025BB
:101E700001280CD0012084F8200094F82160002073
:101E8000012E06D084F820000225284670BD0220CD
:101E900070BD022684F82160A0632068066826F0E1
:101EA000010606602046FEF7BBFEE06A00282068B7
:101EB000016802D041F00E0106E041F00A01016024
:101EC0002068016821F0040101602068016841F088
:101ED00001010160D9E7000070B5044600F0FCF88C
:101EE0000546601C02D004480078044400F0F4F871
:101EF000401BA042FAD370BD980200202DE9FC4F90
:101F0000DFF894A1002301250AF1040B03244FF00C
:101F10000F0C0BF1040EB8E005FA03F632406FD057
:101F20004F68012F05D0022F03D0112F01D0122F9F
:101F300017D1D0F808905F0004FA07F829EA0809D9
:101F40000097D1F80C8008FA07F848EA0908C0F8A9
:101F500008804768B7430E79C6F300169E403E439B
:101F60004660C6684FEA430804FA08F7BE43019783
:101F70008F6807FA08F73743C7604E68022E01D012
:101F8000122E13D1DE0800EB86060096366A5F0734
:101F9000FF0E0CFA07F926EA0906D1F8109009FAA3
:101FA00007F949EA0609009EC6F820900668019FD5
:101FB000BE430F7907F0030707FA08F737430760B6
:101FC0004E68F60060D5354EB76947F00107B76136
:101FD000B66923F0030706F001060096304E3E4432
:101FE000B146B6689F074FEA17780CFA08F7BE4368
:101FF000B0F1904F05D02B4FB84204D1012712E029
:1020000042E000270FE0284FB84201D102270AE042
:10201000264FB84201D1032705E0254FB84201D130
:10202000042700E0052707FA08F73743C9F80870C6
:10203000DAF800605746D1F8048096435FEAC83862
:1020400000D516433E60DBF800605F46D1F804809F
:1020500096435FEA883800D516433E60DEF800609C
:102060007746D1F8048096435FEAC82800D5164326
:102070003E60094F0C373E68D1F8048096435FEA12
:10208000882800D516433E605B1C0A6832FA03F6C6
:102090007FF442AFBDE8FC8F000401400010024015
:1020A000000001400004004800080048000C0048FF
:1020B000001000480069084000D0012070474269C4
:1020C00021EA02030A4043EA0241816170470AB1F2
:1020D00081617047816270470148806870470000E5
:1020E000980200200248816802781144816070479C
:1020F00098020020074810B5016841F01001016006
:10210000032000F06FF8002000F006F800F024F83B
:10211000002010BD0020024070B50D4D04464FF464
:102120007A712878B1FBF0F00A490968B1FBF0F048
:1021300001F078F948B9102C07D200222146501E30
:1021400000F030F800206C6070BD012070BD000010
:1021500098020020200000100A4882B0816941F0F6
:1021600001018161816901F001010091C16941F0C2
:102170008051C161C06900F080500090072002B01A
:1021800000F030B800100240002809DB00F01F0208
:10219000012191404009800000F1E020C0F80011C9
:1021A00070470000F0B40E4B1B680C46C3F30223CB
:1021B000C3F10705042D00D90425191D072901D2F3
:1021C000002300E0DB1E012606FA05F1491E21402E
:1021D00099409E40761E16403143F0BC04F0C0BECC
:1021E0000CED00E0064900F0070208684FF6FF0317
:1021F000184040EA0220034A10430860704700007C
:102200000CED00E00000FA0510B50C0607D501F052
:10221000070101EB810100EBC100283005E001EB73
:10222000810100EBC10000F5B47099B232B1012216
:1022300002730181190C4181002010BD002202733C
:10224000C180F9E7704701EB810200EBC202D0F8D0
:10225000E802D26B03F033BE01EB810200EBC20255
:10226000D0F8E802D2F87C2103F08CBE70B50446A9
:102270000B0601F0070000EB800104EBC1014FF0F9
:1022800001024FF0000503D581F82920283103E031
:1022900081F8695101F5B471087094F8A802012819
:1022A00008D084F8A822206804F0AAFA84F8A8527A
:1022B000002070BD022070BD70B5044601F00F0013
:1022C0006268904201D9012070BD0B0601F0070041
:1022D00000EB800104EBC1014FF001024FF000055B
:1022E00003D581F82920283103E081F8695101F5EF
:1022F000B4718D70087094F8A802012808D084F891
:10230000A822206804F015FB84F8A852002070BDB4
:10231000022070BD2DE9F05F04685FEA424C0B7843
:102320008D69B4F850C04FF000064BF68F7948F233
:10233000800A48F68F7B48F2C00E4FF480672AD59A
:102340004FF0020808EBC308C44407EB4C07E45BFA
:10235000C4F30904A54203D32D1B8D6101D00BE00A
:102360008E61066836F8235005EA090585F40055A4
:1023700045EA0A0526F82350520609D50D78036868
:1023800033F8252002EA0B0242EA0E0223F8252048
:1023900084B30A8929E04FF0060808EBC308C44457
:1023A00007EB4C07E45BC4F30904A54203D32D1BE0
:1023B0008D6101D00BE08E61066836F8235005EA86
:1023C000090585F4005545EA0A0526F8235052060A
:1023D00009D40B78056835F8232002EA0B0242EA9B
:1023E0000E0225F823202CB14A894969006823464A
:1023F00004F06EFD2046BDE8F09F2DE9F05F054634
:102400000C4600685FEA426C16462278A369B0F871
:1024100050C04FF0000148F68F774CF280094FF61C
:10242000FF7B4FF4004E4FF4806A6CD54FF00208EA
:1024300008EBC208E0440AEB480C30F80C00C0F38B
:102440000900834211D91B1AA3610FD0730407D569
:102450002E6836F822303B4043EA090326F8223042
:1024600094F82420012A08D0C6E0A161114628462C
:10247000FFF7E9FE70046CD4BEE062690244626159
:10248000E2690244E2612369226A9A4202D3184651
:10249000111A03E084F824100AB110462162617811
:1024A00011B1012923D02BE02968B1F85020114443
:1024B000227801EB021101F2044148B13E280FD805
:1024C0004208C30700D0521C0BEA82220A8017E0A0
:1024D0000A8822F4F8420A800A8842F40042F5E7AA
:1024E0004209C30600D1521E4EEA8222EEE7296855
:1024F000B1F850201144227801EB0211A1F8040434
:1025000083B2228974E04FF0060808EBC208E04469
:102510000AEB480C30F80C00C0F30900834211D3D9
:102520001B1AA3610FD0730407D42E6836F822302B
:102530003B4043EA090326F8223094F82420012A7C
:1025400011D059E0A16111462846FFF77CFE7004C6
:1025500052D42278296831F82200384040EA090034
:1025600021F8220048E0626902446261E2690244A3
:10257000E2612369226A9A4203D31846111A216242
:1025800004E00AB11046216284F8241062782968B8
:1025900012B1012A22D029E0B1F85020114422784A
:1025A00001EB021101F20C4148B13E280FD842085C
:1025B000C30700D0521C0BEA82220A8016E00A8868
:1025C00022F4F8420A800A8842F40042F5E7420900
:1025D000C30600D1521E4EEA8222EEE7B1F8502027
:1025E0001144227801EB0211A1F80C04628983B234
:1025F0006169286804F088FC2278296831F8220093
:1026000048F6BF73184080F0300048F2800318434A
:1026100021F822000020BDE8F09F01F0070101EB46
:10262000810100EBC100D0F8840170472DE9F04131
:1026300004460F0601F0070000EB800104EBC10126
:102640004FF001064FF0000503D581F829602831CD
:1026500003E081F8695101F5B47108700A61CB702B
:102660004A7802B1C881022B00D10D7194F8A802FA
:10267000012809D084F8A862206803F095FF284655
:1026800084F8A852BDE8F0810220FBE770B50C4643
:1026900001F0070505EB850100EBC101C1E95F23EE
:1026A0000022C1F8842181F8692181F8685101F57F
:1026B000B4716207006804F091F9002070BD70B534
:1026C000044601F007006268904201D9012070BD04
:1026D0000B064FF000054FF0010207D500EB80011B
:1026E00004EBC10181F82920283107E001EB8101C9
:1026F00004EBC10181F8695101F5B4718A70087069
:1027000094F8A802012808D084F8A822206804F0D0
:102710004CF984F8A852002070BD022070BD70B53D
:102720000C4601F0070505EB850100EBC101C1E98D
:102730000F23012281F84C208B6400234B6481F825
:10274000292001F8285F6207006804F047F900209B
:1027500070BD10B50446006804F0B6FB000402D555
:10276000204602F09FF9206804F0AEFB40050CD52E
:10277000206830F8441F21F480610180204600F079
:10278000F5F80021204600F00CF9206804F09CFBCD
:10279000400405D5206830F8441F21F480410180B1
:1027A000206804F091FB800405D5206830F8441FB0
:1027B00021F400510180206804F086FBC00414D588
:1027C000206830F8401F21F004010180206830F8B3
:1027D000401F21F008010180204600F0DAF820684F
:1027E00030F8441F21F480510180206804F06CFB14
:1027F000000514D5206830F8401F41F00801018021
:10280000206830F8441F21F400610180206830F80E
:10281000401F41F004010180204600F0F7F82068D5
:1028200004F052FB800508D5206830F8441F21F4DD
:1028300000710180204600F0B0F8206804F044FBED
:10284000C00505D5206830F8441F21F4807101804F
:1028500010BD70B586B0040004D094F8A90200251C
:1028600018B107E0012006B070BD84F8A8522046D8
:1028700000F042F8032084F8A902206804F052F81E
:10288000002001260EE000EB800104EBC10181F87D
:10289000296001F8280FC881CD700D614D61401C81
:1028A000C0B28D6161688142EDD8002011E000EB7B
:1028B000800104EBC10181F8695181F8680181F858
:1028C0006B51C1F87851C1F87C51401CC0B2C1F8BD
:1028D000805161688142EAD8142204F110016846EF
:1028E000FDF7AFFC94E80F0004F013F884F82450CF
:1028F00084F8A9620020B6E710B586B0044614211A
:102900006846FDF7B7FC17492068884228D1164C65
:10291000606940F4003060616069694600F400302D
:1029200005904FF4C05000900220019000200290CA
:10293000032003900E2004904FF09040FFF7DEFA42
:10294000E06940F40000E061E069002200F400006A
:10295000059011461420FFF725FC1420FFF714FC06
:1029600006B010BD005C00400010024070B5044687
:1029700080680125022801D0FEF768F92946D4F8BD
:10298000E80203F0E8FBD4F8E802BDE8704003F089
:10299000A4BBD0F8E80203F0C8BBD0F8E80203F00B
:1029A000CEBB10B5044690F8A80201280BD0012038
:1029B00084F8A80284F82410206804F09FFA00200C
:1029C00084F8A80210BD022010BDD0F8E82200F55E
:1029D0002C71104603F0CBBB10B5044690F8A8024A
:1029E000012810D0012084F8A802206804F05DFAC4
:1029F00001212046FFF726FC206803F088FF002015
:102A000084F8A80210BD022010BD000010B50446D5
:102A1000D0F8E80203F0EAFBA069002804D00348DC
:102A2000016841F00601016010BD000010ED00E0FA
:102A30002DE9F84F044600680026804DC0036ED58E
:102A4000E869C00008D4E86940F08050E861E869AE
:102A5000012600F08050009079480168C90512D421
:102A60000168804641F480710160FFF735FB07463D
:102A700005E000BFFFF730FBC01B642835D8D8F84D
:102A80000000C005F6D5286A10F4407053D0A18824
:102A900001F4407181424ED0286A4FF4803191FA9E
:102AA000A1F2B2FA82F29700664A4FF00108174489
:102AB00020F44070C7F8008491FAA1F1B1FA81F1D5
:102AC00002EB81010023C1F800342862C00732D034
:102AD000FFF702FB074641F2883A4FF0020907E090
:102AE000FFF7FAFAC11B514502D90320BDE8F88F60
:102AF00099FAA9F0B0FA80F040F040024946B8EBEC
:102B0000521F01D12A680CE091FAA1F2B2FA82F2C6
:102B100042F04002B1EB521F02D12A6A01E015E0F7
:102B20006A6A99FAA9F1B1FA81F101F01F0108FA74
:102B300001F00242D4D0286A616820F44070084352
:102B400028621EB1E86920F08050E8612078C00753
:102B500005D0286BA16820F0030008432863207883
:102B6000800705D5286BE16820F4403008432863CE
:102B70002078400705D5286B216920F440200843C0
:102B800028632078800605D5286BE16920F01000C5
:102B9000084328632068800305D56868A16B20F48A
:102BA0008000084368602078400605D5286B216ABC
:102BB00020F02000084328632078000705D5286B03
:102BC000616920F44010084328632078C00605D5C9
:102BD000286BA16920F44000084328632088800501
:102BE00005D56868E16A20F4000008436860207831
:102BF000000605D5E86A616A20F4F8700843E862C7
:102C00002088C00505D5E86AA16A20F478500843F9
:102C1000E8622088C00405D5286B216B20F4807001
:102C2000084328632088800405D5286B616B20F455
:102C3000007008432863002058E70000001002409D
:102C400000700040000042422DE9F0470F460500A9
:102C500069D04A4E306800F00700B84209D23068A7
:102C600020F0070038433060306800F00700B842B9
:102C700059D12878424C800705D56068A96820F0B2
:102C8000F000084360602878C0073DD069680120E3
:102C900001290DD0022923D05FF0020393FAA3F299
:102CA000B2FA82F242F02002520904D0226803E014
:102CB0004FF40033F2E7626A93FAA3F3B3FA83F3B3
:102CC00003F01F03984002422DD0606820F00300FB
:102CD00008436060FFF700FA804641F288390CE053
:102CE0004FF00073DAE700BFFFF7F6F9A0EB080139
:102CF000494502D90320BDE8F0876068696800F0A3
:102D00000C00B0EB810FEFD1306800F00700B84243
:102D10000BD9306820F0070038433060306800F08D
:102D20000700B84201D00120E5E72878400705D523
:102D30006068E96820F4E060084360602878000774
:102D400006D56068296920F4605040EAC1006060DF
:102D500000F04EF86168F02292FAA2F201F0F00160
:102D6000B2FA82F2D140074A515CC8400649086075
:102D700006480068FFF7D0F90020BCE700200240B9
:102D80000010024080920008200000109C020020E9
:102D900008480949006849684FF4E06292FAA2F2D3
:102DA00001F4E061B2FA82F2D140044A515CC840B9
:102DB00070470000200000100010024090920008B0
:102DC00008480949006849684FF4605292FAA2F233
:102DD00001F46051B2FA82F2D140044A515CC84019
:102DE0007047000020000010001002409092000880
:102DF000164A10B55168164801F00C03042B20D078
:102E0000082B1ED14FF4701494FAA4F401F470133B
:102E1000B4FA84F4E3400F4CD26AE45C0F2393FAD3
:102E2000A3F302F00F02B3FA83F3DA40094B103335
:102E3000C9039A5C06D500231946FDF7C1F9A0FB2A
:102E4000040110BD0448A4FB000110BD00100240A5
:102E500000127A006092000800093D002DE9F84F49
:102E6000050071D02878FC4EC0074FF0010425D032
:102E700070686704C0F38100012807D07068C0F350
:102E8000810002281BD17068C00318D597FAA7F0FB
:102E9000B0FA80F040F02000400901D0306800E036
:102EA000706A97FAA7F1B1FA81F101F01F0104FAF3
:102EB00001F1084265D068680028D2D061E06868F6
:102EC000B0F5803F0BD010B1B0F5A02F17D030680F
:102ED00020F480303060306820F4802002E03068D8
:102EE00040F480303060F06AA96820F00F00084399
:102EF000F062686820B3FFF7EFF880460AE03068B8
:102F000040F480203060EAE7FFF7E6F8A0EB080025
:102F1000642871D897FAA7F0B0FA80F040F020004A
:102F2000400901D0306800E0706A97FAA7F1B1FA61
:102F300081F101F01F0104FA01F10842E4D020E020
:102F4000FFF7CAF8804607E0C2E000BFFFF7C4F809
:102F5000A0EB08006428DCD897FAA7F0B0FA80F05C
:102F600040F02000400901D0306800E0706A97FA14
:102F7000A7F1B1FA81F101F01F0104FA01F1084251
:102F8000E4D12878DFF8D48280074FF0000A4FF0B0
:102F9000020730D570684FF0F80B10F00C0F07D017
:102FA0007068C0F38100022827D17068C00324D460
:102FB00097FAA7F0B0FA80F040F02000400901D065
:102FC000306800E0706A97FAA7F1B1FA81F101F078
:102FD0001F0104FA01F1084202D02869012877D1C3
:102FE00030689BFAABF220F0F8016869B2FA82F21D
:102FF0009040014331605AE064E1286988B394FA53
:10300000A4F0B0FA80F048F82040FFF765F8814658
:1030100006E000BFFFF760F8A0EB090002289AD88D
:1030200097FAA7F0B0FA80F040F02000400901D0F4
:10303000306800E0706A97FAA7F1B1FA81F101F007
:103040001F0104FA01F10842E4D030689BFAABF2A8
:103050006969B2FA82F220F0F800914008433060CA
:1030600025E0FFE794FAA4F0B0FA80F048F820A039
:10307000FFF732F8814605E0FFF72EF8A0EB0900D4
:103080000228CCD897FAA7F0B0FA80F040F02000E0
:10309000400901D0306800E0706A97FAA7F1B1FAF0
:1030A00081F101F01F0104FA01F10842E4D128780E
:1030B00000076CD5A869A8B394FAA4F0B0FA80F020
:1030C00008EB8000C0F88044FFF706F8814607E06F
:1030D000A4E100BFFFF700F8A0EB090002289ED88A
:1030E00097FAA7F0B0FA80F040F06000B4EB501F00
:1030F00001D130680BE097FAA7F0B0FA80F040F009
:103100006000B7EB501F01D1306A00E0706A97FA97
:10311000A7F1B1FA81F101F01F0104FA01F21042A6
:10312000D8D034E0FFE794FAA4F1B1FA81F108EBCA
:103130008101C1F880A4FEF7CFFF814606E000BF01
:10314000FEF7CAFFA0EB090002289AD897FAA7F069
:10315000B0FA80F040F06000B4EB501F01D130684D
:103160000BE097FAA7F0B0FA80F040F06000B7EB00
:10317000501F01D1306A00E0706A97FAA7F1B1FAE6
:1031800081F101F01F0104FA01F21042D8D1287830
:10319000400768D5F0694FF00009C00009D4F06914
:1031A00040F08050F061F0694FF0010900F080506C
:1031B00000902B480168C90512D4016841F4807160
:1031C0000160FEF789FF834606E000BFFEF784FF3B
:1031D000A0EB0B00642875D821480068C005F5D520
:1031E000E86801280AD008B1052811D0306A20F01B
:1031F00001003062306A20F0040002E0306A40F0E2
:1032000001003062E86868B3FEF766FF83460DE0B0
:10321000306A40F004003062F0E700BFFEF75CFF68
:10322000A0EB0B0141F2883081424BD897FAA7F00E
:10323000B0FA80F040F04000B4EB501F01D130688C
:1032400013E097FAA7F0B0FA80F040F04000B7EB37
:10325000501F09D1306A08E00010024000004242CD
:10326000007000400CE040E0706A97FAA7F1B1FAF4
:1032700081F101F01F0104FA01F21042CED02DE0DD
:10328000FEF72AFF834607E0FEF726FFA0EB0B01BF
:1032900041F28830814215D897FAA7F0B0FA80F051
:1032A00040F04000B4EB501F01D130680CE097FAB9
:1032B000A7F0B0FA80F040F04000B7EB501F02D109
:1032C000306A01E083E0706A97FAA7F1B1FA81F100
:1032D00001F01F0104FA01F21042D5D1B9F1000F3B
:1032E00003D0F06920F08050F061E86980B3716824
:1032F000C1F38101022977D04FF080714F0002287D
:10330000504609D091FAA1F1B1FA81F148F82100B3
:10331000FEF7E2FE05465DE0894691FAA1F1B1FAB9
:1033200081F1C24648F82100FEF7D6FE804605E04E
:10333000FEF7D2FEA0EB0800022848D897FAA7F0C3
:10334000B0FA80F040F02000400902D0306801E07F
:1033500066E0706A97FAA7F1B1FA81F101F01F01F6
:1033600004FA01F10842E3D1D5E908100843716875
:1033700021F474110843706099FAA9F0B0FA80F052
:103380004AF82040FEF7A8FE054604E0FEF7A4FE3A
:10339000401B02281BD897FAA7F0B0FA80F040F043
:1033A0002000400901D0306800E0706A97FAA7F168
:1033B000B1FA81F101F01F0104FA01F10842E5D0F0
:1033C0002EE000BFFEF788FE401B022802D9032032
:1033D000BDE8F88F97FAA7F0B0FA80F040F020002F
:1033E000400902D0306801E00BE0706A97FAA7F15B
:1033F000B1FA81F101F01F0104FA01F10842E1D1B3
:103400000EE00128E4D070682A6A00F4803191420D
:1034100004D1696A00F47010884201D00120D7E716
:103420000020D5E710B5401EB0F1807F01D3012008
:1034300010BD4FF0E02460610F21601703F090FD94
:103440000020A06107202061002010BD7047704758
:1034500070470000F0B590F83C20012A36D00124D6
:1034600080F83C40022280F83D200268536895684D
:10347000174E184FB24201D0BA4204D123F4700C57
:103480004B6843EA0C0323F0700C0B6843EA0C030F
:1034900053600268B2420DD0B2F1804F0AD00E4B99
:1034A0009A4207D00D4B9A4204D0BA4202D00C4B3C
:1034B0009A4204D1896825F080031943916080F80D
:1034C0003D40002180F83C100846F0BD0220F0BDD0
:1034D000002C01400034014000040040000800407E
:1034E0000040014010B5040003D094F83D0010B135
:1034F00007E0012010BD002084F83C00204600F0C9
:1035000023F8022084F83D00211D206801F0C6FC4C
:10351000012084F8480084F83E0084F83F0084F8D5
:10352000400084F8410084F8420084F8430084F8A5
:10353000440084F8450084F8460084F8470084F885
:103540003D00002010BD000008B5474A016847480B
:1035500091420ED1816941F400618161806900224C
:1035600000F40060009011461920FEF71BFE1920A0
:1035700075E0B1F1804F11D03D4A91421DD1C16932
:1035800041F00201C161C069002200F00200009018
:1035900011461D20FEF706FE1D2060E0C16941F0C6
:1035A0000101C161C069002200F0010000901146D4
:1035B0001C20FEF7F7FD1C2051E02E4A91420ED14F
:1035C000C16941F00401C161C069002200F004003A
:1035D000009011461E20FEF7E5FD1E203FE0264A22
:1035E000914207D1C16941F01001C161C06900F089
:1035F000100009E0214A914208D1C16941F020013F
:10360000C161C06900F02000009008BD1C4A9142D1
:10361000FBD1816941F4005181618069002200F48D
:103620000050009011462B20FEF7BCFD2B20FEF72A
:10363000ABFD002211462C20FEF7B4FD2C20FEF736
:10364000A3FD002211462D20FEF7ACFD2D20FEF734
:103650009BFD002211462E20FEF7A4FD2E20BDE882
:103660000840FEF791BD0000002C01400010024010
:10367000000400400008004000100040001400401A
:103680000034014090F83D10012901D0012070471D
:10369000022180F83D1000680F4988420ED0B0F139
:1036A000804F0BD00D49884208D00D49884205D083
:1036B0000C49884202D00C49884207D181680B4AE4
:1036C0001140062906D0B1F5803F03D0016841F0D2
:1036D0000101016000207047002C014000040040FF
:1036E0000008004000340140004001400700010094
:1036F00090F83D10012901D001207047022180F887
:103700003D100168CA6842F00102CA6000681049B1
:1037100088420ED0B0F1804F0BD00E49884208D0BD
:103720000D49884205D00D49884202D00C49884293
:1037300007D181680B4A1140062906D0B1F5803FB8
:1037400003D0016841F001010160002070470000D2
:10375000002C0140000400400008004000340140FB
:10376000004001400700010001680A6A41F211139C
:103770001A4207D10A6A9B101A4203D10A6822F042
:1037800001020A60012180F83D10002070470168A5
:10379000CA6822F00102CA6001680A6A41F2111384
:1037A0001A4207D10A6A9B101A4203D10A6822F012
:1037B00001020A60012180F83D10002070470000DE
:1037C00070B5044690F83C00012817D0012584F814
:1037D0003C50022084F83D00226890682E4B18402F
:1037E00020F47F4090600868502830D00DDC2028FD
:1037F0004DD005DC98B310283BD148E0022070BDC5
:10380000302844D0402834D139E0602828D07028AE
:1038100006D0B0F5805F2CD0B0F5005F29D10AE06A
:10382000CB68D1E90121206801F09DFB2068816807
:1038300041F0770109E0CB68D1E90121206801F06E
:1038400092FB2068816841F48041816011E0CA6880
:103850004968206801F022FD5021206807E016E049
:10386000CA684968206801F02AFD6021206801F0DB
:1038700084FB84F83D50002084F83C0070BDCA6889
:103880004968206801F00AFD40212068EFE72268BE
:1038900001461046EBE7000088FFFEFF704770B559
:1038A0000446006801694FF00005C943890715D433
:1038B000C168C943890711D4E91E0161012020773D
:1038C000206880698007204602D0FFF7E7FF04E008
:1038D00000F0E4F8204600F0A3F92577206801699C
:1038E000C943490717D4C168C943490713D46FF0C6
:1038F00004010161022020772068806910F4407F74
:10390000204602D0FFF7CAFF04E000F0C7F82046C7
:1039100000F086F9257720680169C943090716D4A4
:10392000C168C943090712D46FF00801016104207E
:1039300020772068C0698007204602D0FFF7AEFFDD
:1039400004E000F0ABF8204600F06AF92577206823
:103950000169C943C90617D4C168C943C90613D44C
:103960006FF010010161082020772068C06910F411
:10397000407F204602D0FFF791FF04E000F08EF870
:10398000204600F04DF9257720680169C943C90731
:1039900008D1C168C943C90704D1891E0161204605
:1039A00000F0BEF920680169C943090609D4C1685D
:1039B000C943090605D46FF0800101612046FFF775
:1039C00046FD20680169C943C90509D4C168C943D6
:1039D000090605D46FF4807101612046FFF736FDBA
:1039E00020680169C943490609D4C168C943490629
:1039F00005D46FF040010161204600F055FA2068BF
:103A00000169C94389060BD4C168C943890607D433
:103A10006FF0200101612046BDE87040FFF718BD3E
:103A200070BD000030B587B0044614216846FCF72D
:103A300021FC2068B0F1804F29D11648416941F43A
:103A400000314161416901F400310591416941F45E
:103A5000801141614069022500F4801005904FF407
:103A6000004000900024CDE901540120CDE903403D
:103A700069464FF09040FEF741FAD0200090CDE922
:103A8000015469460448CDE90345FEF737FA07B00B
:103A900030BD000000100240000C0048704770B5B7
:103AA000044690F83C000D4601280BD0012084F814
:103AB0003C000C2A45D007DC5AB1042A1BD0082A46
:103AC00078D12CE0022070BD102A4ED0142A71D17A
:103AD0005DE0206801F05AFA2068816941F0080130
:103AE00081612068816921F0040181612068816918
:103AF0002A69114311E0206801F096FA2068816973
:103B000041F4006181612068816921F480618161F3
:103B1000206881692A6941EA022181614AE02068BE
:103B200001F0CAFA2068C16941F00801C16120684A
:103B3000C16921F00401C1612068C1692A6911438A
:103B400011E0206801F000FB2068C16941F40061C8
:103B5000C1612068C16921F48061C1612068C169C7
:103B60002A6941EA0221C16124E0206801F026FBB4
:103B70002068416D41F0080141652068416D21F0E8
:103B8000040141652068416D2A69114311E02068F4
:103B900001F04CFB2068416D41F4006141652068F3
:103BA000416D21F4806141652068416D2A6941EAD7
:103BB00002214165002084F83C0070BD10B504006E
:103BC00003D094F83D0010B107E0012010BD0020A3
:103BD00084F83C00204600F022F8022084F83D00E2
:103BE000211D206801F05AF9012084F8480084F86A
:103BF0003E0084F83F0084F8400084F8410084F8D7
:103C0000420084F8430084F8440084F8450084F8B6
:103C1000460084F8470084F83D00002010BD70473E
:103C20007047000030B50446022269B1042912D061
:103C3000082917D00C291CD0102921D094F8430052
:103C4000012824D0012030BD94F83E000128F9D18C
:103C500084F83E201DE094F83F000128F2D184F85A
:103C60003F2016E094F840000128EBD184F8402072
:103C70000FE094F841000128E4D184F8412008E0E5
:103C800094F842000128DDD184F8422001E084F854
:103C900043200122206801F059F9194B2068194985
:103CA000194A984209D0884207D0904205D0174D52
:103CB000A84202D0164DA84203D1456C45F40045F8
:103CC0004564206898420CD0B0F1804F09D0114B68
:103CD000984206D0104B984203D0884201D09042BF
:103CE00007D181680D4A1140062906D0B1F5803F01
:103CF00003D0016841F001010160002030BD0000E7
:103D0000002C0140003401400040014000440140CB
:103D10000048014000040040000800400700010086
:103D20002DE9F047064655480027554C86426ED18E
:103D30006068632802DD04F075FB67606068DFF887
:103D40004481401C606060784FF00A0950BB206BD2
:103D50004546C0EBC001C1EB402108EBC100426801
:103D6000012A1FD194F824203032427235F83110E4
:103D7000083089B2FCF7D8FE606A401C90FBF9F26B
:103D800009FB12006062206BC0EBC001C1EB402157
:103D900005EBC101401C4F6000EBD07121F0010127
:103DA000401A206360684D4690FBF5F109FB110055
:103DB00068BB607801282AD1206BC0EBC001C1EB41
:103DC000402208EBC2014B68012B20D194F820302F
:103DD00030334B7238F83200083182B22A4800F092
:103DE00061FA206A401C90FBF5F105FB110020628E
:103DF000206BC0EBC001C1EB402208EBC201401CAC
:103E00004F6000EBD07121F00101401A20631F4880
:103E100086422AD1206D28BB1D4D04212846FEF77D
:103E200049F91C49626D885408212846FEF742F979
:103E30001949626D885410212846FEF73BF917494D
:103E4000626D885420212846FEF734F90146144A51
:103E5000606D1154401C6065216E884202D10120C2
:103E6000C4E91407A068401CA0600E48864202D135
:103E7000E069401CE061BDE8F08700005C030010D1
:103E8000240200200C03002008520020240500100A
:103E900000100048644200204D460020364A0020B1
:103EA0001F4E0020F40300107047704770477047A2
:103EB0002DE9F04102680446D0691168936840F624
:103EC0000F0528424FF0000505D1860678D58E06ED
:103ED00076D5616EF2E0824F03F001060F40374362
:103EE0007ED0C70709D0CF0507D501271762D4F8C0
:103EF000802042F00102C4F8802082070AD5DA0748
:103F000008D0276802223A62D4F8802042F00402E6
:103F1000C4F8802042070AD5DA0708D023680422B3
:103F20001A62D4F8802042F00202C4F8802002070E
:103F30000CD501F02002324308D0236808221A620F
:103F4000D4F8802042F00802C4F8802002050BD586
:103F50004A0109D523684FF400621A62D4F8802020
:103F600042F02002C4F88020D4F88020002A2FD00C
:103F7000800605D5880603D5616E09B120468847BD
:103F8000D4F8800021688968490602D410F0280F0F
:103F900020D0204601F048FA20688168490614D5EF
:103FA000816821F040018160206F70B14D4941630B
:103FB000206FFDF7B8FE00280AD0206F416B01E0AA
:103FC0000EE02046BDE8F04108472046FFF76FFFAE
:103FD000BDE8F0812046FFF76AFFC4F88050F7E79C
:103FE000276E2026012F58D1C70656D5CF0654D5A7
:103FF000102010622268906840062DD5216F086855
:1040000040680004000CE3D0B4F858308342DFD994
:10401000A4F85A008869202817D0106820F480700E
:1040200010602068816821F001018160206881684A
:1040300021F040018160E66725662068016821F073
:1040400010010160206FFDF74BFEB4F85800B4F882
:104050005A10401A81B21CE0B4F85800B4F85A1053
:10406000401A81B2B4F85A000028B1D00029AFD06C
:10407000106820F4907010602068826822F00102BD
:104080008260E667256665662068026822F0100295
:1040900002602046FFF709FF9AE7C70209D55B02D5
:1040A00007D54FF4801010622046BDE8F041FFF7BD
:1040B000FDBE030605D50B0603D5A16E002980D1F0
:1040C00086E7400684D5480682D51168204621F04F
:1040D00040011160A667A56600F018F978E70000B6
:1040E000200100041554000810B5040002D0A06F90
:1040F00010B107E0012010BD002084F874002046B4
:1041000000F026F82420A0672068016821F0010152
:104110000160204601F01CFA0128ECD0606A10B161
:10412000204601F0E5F82068416821F490414160A3
:104130002068816821F02A0181602068016841F0CF
:10414000010101602046BDE8104001F035B90000D2
:10415000F0B587B0044614216846FCF78BF82E4B67
:10416000226800252D49022403262D489A421ED19B
:10417000CA6942F40022CA61CA6902F400220592A7
:104180004A6942F400224A61496901F4002105911B
:10419000B1028DE87200052104916946FDF7AEFE7B
:1041A000002211463420FDF7FDFF342030E01D4B86
:1041B0009A422FD18A6942F480428A618A6902F464
:1041C000804205924A6942F400224A614A6902F437
:1041D000002205924A6942F400324A614969072780
:1041E00001F40031059120218DE8F2006946FDF7C8
:1041F00085FE4FF400708DE8F10069464FF0904065
:10420000FDF77CFE002211462520FDF7CBFF25207F
:10421000FDF7BAFF07B0F0BD004C004000100240AF
:10422000000800480038014010B4C36F202B18D19B
:10423000A1B19AB190F87430012B12D0012380F80B
:1042400074300023036603685C68240203D51C688D
:1042500044F080641C6010BC01F05EBA012010BC08
:1042600070470220FBE700000B4910B5884212D1CD
:104270000A480B4B816AC2785A54491C8162012258
:10428000184603F089FC05490122BDE81040C91C0D
:104290000148FFF7C9BF10BD0852002024020020CA
:1042A0009C220020836F202B29D1B9B1B2B190F8A4
:1042B0007430012B23D0012380F87430C164A0F83E
:1042C0005020A0F8522000218166C0F880102122E1
:1042D00082678268B2F5805F02D003E001207047F8
:1042E000026952B1074A826680F87410006801685A
:1042F00041F08001016000207047034AF3E702208B
:1043000070470000D5570008955700087047FEE732
:10431000F0B500230A24302537261F4611E000BFE0
:10432000B4EB107F02D905EB107C01E006EB107CAA
:1043300001F813C001EB430C00015B1C8CF8017009
:10434000DBB29342ECD3F0BD70B58AB00024069482
:104350000794182168460894FBF78CFF1F484FF01C
:10436000A0410125C0E9001405618460447680F80D
:104370002040A902C1620226C6614FF4E071C46008
:10438000816280F830400821416104764463FDF782
:1043900075F808B1FCF75AFC06A910480694FCF71A
:1043A0005BFC08B1FCF752FC0520CDE90204009546
:1043B00001950494694609480594FCF7D9FC08B1B5
:1043C000FCF744FC0096694604480196FCF7D0FCD3
:1043D000002801D0FCF73AFC0AB070BD480100107B
:1043E00070B586B018216846FBF744FF1D481C498C
:1043F0000024C0E90014012505618460447680F83A
:104400002040A902C1620226C6614FF45071C46007
:10441000816280F830400421416104764463FDF7F5
:104420002DF808B1FCF712FC0620CDE900050520A7
:10443000CDE90204049469460A480594FCF798FC07
:1044400008B1FCF703FC0720CDE9000669460548E2
:10445000FCF78EFC002801D0FCF7F8FB06B070BD1D
:104460000001005098010010F0B589B000240694B6
:104470000794182168460894FBF7FCFE2F482E4944
:104480000125C0E9001405618460457680F820406C
:10449000C0E90A540526C661C46080F8304004278C
:1044A000476104764463FCF7E9FF08B1FCF7CEFBF3
:1044B00006A922480694FCF7CFFB08B1FCF7C6FB1F
:1044C0000720CDE900050620CDE9020404946946E1
:1044D0001A480594FCF74CFC08B1FCF7B7FB082020
:1044E00000900220019069461448FCF741FC08B195
:1044F000FCF7ACFB092000900320019069460F48AF
:10450000FCF736FC08B1FCF7A1FB0A20CDE9000757
:1045100069460A48FCF72CFC08B1FCF797FB0B2016
:10452000CDE9000669460548FCF722FC002801D0C9
:10453000FCF78CFB09B0F0BD00040050E80100104E
:104540003EB500240F49009401940D480294086080
:104550000846FDF7E2FA08B1FCF778FB0C20CDE93C
:104560000004002269460748FDF7B3FA08B1FCF7DA
:104570006DFB0548016841F0800101603EBD00000F
:10458000007400400403001000000140194808B501
:10459000416941F001014161416901F0010100916E
:1045A000416941F0020141614069002200F00200CE
:1045B000009011460B20FDF7F5FD0B20FDF7E4FD03
:1045C000002211460D20FDF7EDFD0D20FDF7DCFD6D
:1045D000002211463820FDF7E5FD3820FDF7D4FD17
:1045E000002211463C20FDF7DDFDBDE808403C20DF
:1045F000FDF7CABD001002402DE9F04186B014213C
:104600006846FBF737FE2B48416941F400114161D0
:10461000416901F400110591416941F48001416152
:10462000416901F480010591416941F40021416132
:10463000416901F400210591416941F40031416172
:10464000416901F400310591416941F480114161F2
:1046500040694FF0904700F48010059000220C2133
:104660003846FDF734FDDFF850804FF47F460022D6
:1046700031464046FDF72BFD00243C20CDE90004E7
:10468000694640460294FDF739FC0C200090012554
:10469000CDE90154694638460394FDF72FFC009696
:1046A000CDE90154694640460394FDF727FC06B066
:1046B000BDE8F081001002400010004810B588B03D
:1046C00000241948059406940394049400940194DA
:1046D00014490294016040F2CF21C0E9011440F274
:1046E000E731C0E9031444618461FEF7FBFE08B1C1
:1046F000FCF7ACFA4FF48050039003A90A48FFF787
:104700005FF808B1FCF7A2FA0094019469460648E4
:104710000294FEF79FFE002801D0FCF797FA08B03C
:1047200010BD0000002C01405C03001010B58EB0DD
:1047300000240794089409940A940B940C941C2167
:1047400068460D94FBF796FD29484FF080410160C3
:104750004721C0E901146321C0E903148461FEF715
:10476000C1FE08B1FCF772FA4FF48050079007A918
:104770001F48FFF725F808B1FCF768FA1C48FFF757
:104780001DFA08B1FCF762FA0B940BA918480D94B6
:10479000FEF760FE08B1FCF759FA6020CDE900048D
:1047A00002940022694612480494FFF778F908B190
:1047B000FCF74CFA042269460D48FFF770F908B17E
:1047C000FCF744FA082269460948FFF768F908B17E
:1047D000FCF73CFA0C2269460548FFF760F908B17E
:1047E000FCF734FA0248FFF71DF90EB010BD0000C7
:1047F000A803001010B588B0002418480094019454
:10480000029403940494059413490694016041F6BC
:104810001F41C0E9011442F20F71C0E90314846121
:10482000FEF760FE08B1FCF711FA4FF480500090DB
:1048300069460A48FEF7C4FF08B1FCF707FA2020D2
:10484000049004A906940548FEF704FE002801D050
:10485000FCF7FCF908B010BD00040040F4030010A0
:1048600010B588B000241848009401940294039471
:104870000494059413490694016041F61F41C0E970
:10488000011444F61F61C0E903148461FEF72AFE97
:1048900008B1FCF7DBF94FF48050009069460A48F4
:1048A000FEF78EFF08B1FCF7D1F9049404A906487D
:1048B0000694FEF7CFFD002801D0FCF7C7F908B039
:1048C00010BD000000080040400400103EB5002468
:1048D0001048009401940E490294016041F61F4172
:1048E000C0E9011442F20F718461C160FEF7FAFD64
:1048F00008B1FCF7ABF92020009069460294054806
:10490000FEF7A8FD002801D0FCF7A0F93EBD00008D
:10491000001000408C0400103EB500240F480094A5
:1049200001940D49029401604721C0E901146321FB
:104930008461C160FEF7D6FD08B1FCF787F920203D
:104940000090694602940548FEF784FD002801D0D6
:10495000FCF77CF93EBD000000140040D8040010B4
:1049600010B588B000241A48059406940394049462
:104970000094019415490294016041F61F41C0E979
:10498000011442F20F71C0E903148021C0E905410E
:10499000FEF7A8FD08B1FCF759F94FF480500390D9
:1049A00003A90B48FEF70CFF08B1FCF74FF92020D4
:1049B00000900004CDE9010469460548FEF74AFD70
:1049C000002801D0FCF742F908B010BD00340140C6
:1049D000240500100D4810B50B4901604FF4E1317A
:1049E0004160002181600C22C160C0E90412816134
:1049F000C16101624162FFF777FB002803D0BDE887
:104A00001040FCF723B910BD004C004008520020B4
:104A10000D4810B50B4901604FF4E13141600021B0
:104A200081600C22C160C0E904128161C161016230
:104A30004162FFF759FB002803D0BDE81040FCF7A6
:104A400005B910BD003801408C52002010B500227D
:104A50000F49104801F00CFA08B1FCF7F7F80E49BD
:104A60000C4801F0E9FB08B1FCF7F0F80B490948E4
:104A700001F00AF808B1FCF7E9F8064801F032FC49
:104A8000002803D0BDE81040FCF7E0B810BD0000DE
:104A9000A402002070050010D4020020C0020020F3
:104AA000FEE770472DE9F84F044640F68F7B48F645
:104AB0000F7A4FF002094FF4806868E1B0F84410B3
:104AC00011F00F0638D030F8267039047ED530F852
:104AD000261001EA0B0141F0800120F8261006EBB8
:104AE000860004EBC00595F8740105F5B47500283F
:104AF0006DD0E87802286BD02A78216831F822003E
:104B000048F68F73184048F2C003184321F822007A
:104B10002978206830F82120B0F8503052047DD533
:104B200009EBC1015A1808EB4201415A8905890D68
:104B3000009174D02A89D2E0C9062DD4018801EAF7
:104B40000A0141F400410180206804F12805B0F811
:104B500050302A7809EBC2015A1808EB4201405A3A
:104B6000C0F309006064E16B0844E0630021204663
:104B7000FDF769FB94F8240000289ED0A86900285E
:104B80009BD194F8240040F080012068A0F84C10DC
:104B9000002084F82400FAE0018804F5B4750A05C1
:104BA00021D5B0F850302A78062101EBC2015A18FD
:104BB00008EB4201405A04F52C71C0F30903EB6184
:104BC000EA88206802F084F9216802E0A2E062E04D
:104BD00072E0088800EA0B0040F080000880204660
:104BE000FDF7F3FED3E00904D5D5018801EA0B01F6
:104BF00041F0800101802068B0F850202B78062118
:104C000001EBC3010A4408EB4201405A83059B0DA6
:104C1000EB6110D0696971B1EA8801E053E051E0BD
:104C2000206802F055F9E969686908446861002163
:104C30002046FDF711FB2068B0F8501008442969A0
:104C400000F20C4051B13E2910D84A08C90700D0E3
:104C5000521C4FF6FF7101EA82210FE0018821F416
:104C6000F8410180018841F4004107E04A09C90682
:104C700000D1521E4FF4004141EA82210180206898
:104C800001884BF68F72114081F4405148F2800246
:104C9000114301807BE02068B0F850102A78062389
:104CA00003EBC2020A4408EB4201415A8905890D0F
:104CB000009118D0EA8812E03A4629462046FDF7CE
:104CC00029FB00900FE0062202EBC1015A1808EB05
:104CD0004201415A8905890D009104D06A896969A8
:104CE000009B02F0F5F8E96900980844E8616969F9
:104CF000009808446861A86918B129690098814240
:104D000004D929782046FDF7A7FA03E02946206850
:104D100001F064FE38063AD5226806EB860004EB03
:104D2000C00132F8260000EA0A0040F4004022F8F0
:104D3000260091F82B002831022801D1F80522D451
:104D40002268B2F850300D7809EBC500034408EB37
:104D50004300105A8A69C0F3090082420CD9121A22
:104D60008A610BD04A6902444A61CA691044C86129
:104D7000206801F033FE0AE000208861E9B2204695
:104D8000FDF761FA03E03A462046FDF736FB20685E
:104D9000B0F8441009043FF591AE0020BDE8F88F4B
:104DA00070477047FDF79EB930B59FB028210FA816
:104DB000FBF760FA142119A8FBF75CFA3C2168465E
:104DC000FBF758FA0121002408041194CDE90F10D3
:104DD0000225CDE9165013914FF4E01018900FA85A
:104DE000FEF73CF80F20CDE919056802CDE91B401C
:104DF000022119A81D94FDF727FF0848059400908B
:104E0000E8010990400102940A900E940C940D94CC
:104E10006846FDF70DFE1FB030BD0000893102006D
:104E20000548016841F47001016003494FF00060DA
:104E3000803908607047000088ED00E00148FEF707
:104E40002EBD00005C0300100148FEF728BD0000E5
:104E5000A80300100148FEF722BD0000F403001073
:104E60000148FEF71CBD0000400400100148FEF799
:104E700016BD0000240500100148FEF710BD00001B
:104E8000240500100148FEF70ABD000024050010AB
:104E90000148FEF704BD0000240500102DE9F04391
:104EA0000268234B234D244E244C4FF080499842F6
:104EB00007D0484505D0A84203D0B04201D0A04257
:104EC00003D122F070074A683A431D4FDFF874C0DF
:104ED000DFF8748098420DD048450BD0A84209D025
:104EE000B04207D0A04205D0B84203D0604501D0FF
:104EF000404503D122F44075CA682A434D6922F027
:104F000080022A4302608A68C2620A68826298420A
:104F100007D0A04205D0B84203D0604501D040453B
:104F200001D10969016301214161BDE8F0830000FD
:104F3000002C014000040040000800400034014003
:104F400000400140004401400048014010B501F01C
:104F50001F030121046A99408C430462016A9A404C
:104F60001143016210BD10B5846842EA032224F4A3
:104F70007F440A432243826010BD826822F070029F
:104F80000A4342F007018160704700002DE9F043B9
:104F9000026A22F001020262056A436882691C4CBF
:104FA00025F0020522400C6822F0030214438A68AF
:104FB000194E2A43174D194FDFF864C0DFF864908B
:104FC000A84207D0B04205D0B84203D0604501D016
:104FD000484506D122F00808CA6842EA080222F0D1
:104FE0000402A84207D0B04205D0B84203D06045C1
:104FF00001D0484505D14D6923F440731D438B69A9
:105000002B4343608461496841630262BDE8F083D9
:105010008FFFFEFF002C01400034014000400140A2
:105020000044014000480140F0B5026A22F010023D
:105030000262056A42688369194C1B4E23400C6862
:1050400023F4407343EA042425F020038D6843EAE7
:105050000513144DA84201D0B04206D1CF6823F009
:10506000800343EA071323F04003A8420AD0B0426A
:1050700008D00E4DA84205D00D4DA84202D00D4DCE
:10508000A84207D14D6922F4406242EA85028D6947
:1050900042EA850242608461496881630362F0BD2F
:1050A000FF8FFFFE002C0140003401400040014012
:1050B0000044014000480140F0B5026A22F48072C9
:1050C0000262056A4368C269194C1B4E22400C6893
:1050D00022F00302144325F400728D6842EA05228F
:1050E000144DA84201D0B04206D1CF6822F400622C
:1050F00042EA072222F48062A8420AD0B04208D0D5
:105100000E4DA84205D00E4DA84202D00D4DA8422A
:1051100007D14D6923F4405343EA05138D6943EAEF
:1051200005134360C4614968C1630262F0BD0000B9
:105130008FFFFEFF002C0140003401400040014081
:10514000004401400048014030B5026A22F4805218
:105150000262046A4268C369124D24F400542B4071
:105160000D6823F4407343EA05238D6844EA05344F
:105170000D4DA8420BD00D4DA84208D00C4DA842B1
:1051800005D00C4DA84202D00B4DA84204D14D6968
:1051900022F4804242EA85124260C3614968016498
:1051A000046230BDFF8FFFFE002C0140003401403F
:1051B00000400140004401400048014030B5026A0F
:1051C00022F480320262046A4268436D114D2B4022
:1051D0000D681D4324F400330C8943EA04430E4C4C
:1051E000A0420BD00D4CA04208D00D4CA04205D0DF
:1051F0000C4CA04202D00C4CA04204D14C6922F4C9
:10520000803242EA04224260456549688165036252
:1052100030BD00008FFFFEFF002C01400034014034
:1052200000400140004401400048014030B5026A9E
:1052300022F480120262046A4268436D114D24F424
:1052400000142B400D6843EA05230D8944EA0554F8
:105250000D4DA8420BD00D4DA84208D00C4DA842D0
:1052600005D00C4DA84202D00B4DA84204D14D6987
:1052700022F4802242EA8522426043654968C16582
:10528000046230BDFF8FFFFE002C0140003401405E
:1052900000400140004401400048014010B5036A4D
:1052A000046A24F001040462846924F0F00444EAEE
:1052B000021423F00A020A438461026210BD10B591
:1052C000036A23F0100303628369046A23F47043C2
:1052D00043EA023224F0A00343EA01118261016231
:1052E00010BD00000148FEF7E3BD00000852002099
:1052F00090F82410C90706D001684A68836A22F42E
:1053000000321A434A6090F82410890706D50168D4
:105310004A68C36A22F480321A434A6090F8241023
:10532000490706D501684A68036B22F480221A43B4
:105330004A6090F82410090706D501684A68436B53
:1053400022F400421A434A6090F82410C90606D598
:1053500001688A68836B22F480521A438A6090F84D
:105360002410890606D501688A68C36B22F40052AE
:105370001A438A6090F82410490611D501684A68DA
:10538000036C22F480121A434A60016CB1F5801F4D
:1053900006D101684A68436C22F4C0021A434A608D
:1053A00090F82410090606D501684A68806C22F43A
:1053B000002202434A607047F8B500260446C0F850
:1053C0008060FCF789FE0546206800686FF07E4724
:1053D000000708D52B4600224FF400112046009705
:1053E00000F016FA60B92068006840070AD52B461D
:1053F00000224FF480012046009700F009FA08B11E
:105400000320F8BD2020A067E067266684F874605A
:105410000020F8BD10B5406A0021A0F85A10A0F88D
:105420005210FEF744FD10BD01680A6822F4907224
:105430000A6001688A6822F001028A60016E01290F
:1054400004D101680A6822F010020A602021C167B5
:10545000002101664166704770B5B0F85C10C26FFC
:1054600004460068222A04D0816941F00801816164
:1054700070BD808C626D08401080606D801C60651E
:10548000B4F85A00401EA4F85A00B4F85A00002894
:10549000EED12068016821F4907101602068816874
:1054A00021F0010181602020E06700256566206E03
:1054B000012804D02046FEF7D7FE256670BD20687F
:1054C000016821F010010160B4F858102046FEF781
:1054D000ECFCF2E770B5B0F85C10C26F04460068EF
:1054E000222A04D0816941F00801816170BD808C5D
:1054F0000840616D0870606D401C6065B4F85A002A
:10550000401EA4F85A00B4F85A000028EED12068D2
:10551000016821F4907101602068816821F0010127
:1055200081602020E06700256566206E012804D098
:105530002046FEF799FE256670BD2068016821F0BF
:1055400010010160B4F858102046FEF7AEFCF2E7F7
:1055500070B5044680682169E269084361690025E5
:10556000114322680843116849F20C6399430143CF
:10557000116020684168E26821F4405111434160A4
:10558000216AA06901432068826822F430620A43DC
:1055900082605A4A20685A4990420CD1086B10F038
:1055A000030006D001285FD002285FD0032845D130
:1055B00058E0012143E0534A90420DD1086B10F4AA
:1055C00040304DD0B0F5803F4ED0B0F5003F4DD0CB
:1055D000B0F5403F32D145E04B4A90420DD1086BC7
:1055E00010F440203CD0B0F5802F3DD0B0F5002F16
:1055F0003CD0B0F5402F21D134E0444A90420DD147
:10560000086B10F440102BD0B0F5801F2CD0B0F5F3
:10561000001F2BD0B0F5401F10D123E03C4A904230
:105620000CD1086B10F440001AD0B0F5800F1BD0DD
:10563000B0F5000F1AD0B0F5400F13D01021E36978
:105640004FF40040334A4FF6EF7683422ED10929BA
:105650004AD2DFE801F00D101349154949491800F5
:105660000021ECE70221EAE70421E8E70821E6E768
:10567000FDF78EFB06E0FDF7A3FB03E0104602E01A
:10568000FDF7B6FB88B34100606801EB5001B1FB48
:10569000F0F081B2A1F11000B04225D84FF6F072BF
:1056A00001EA0200C1F3420108431FE009291BD2AD
:1056B000DFE801F005080B1A0D1A1A1A1000FDF7A1
:1056C00067FB06E0FDF77CFB03E0104602E0FDF718
:1056D0008FFB50B1616800EB5100B0FBF1F080B27C
:1056E000A0F11001B14201D9012501E02168C86093
:1056F00000206066A066284670BD000000380140AA
:10570000001002400044004000480040004C0040AF
:105710000050004000127A0010B54165A0F85820F2
:10572000A0F85A200021416682684FF48054FF237C
:10573000A24204D1026922BB40F2FF121EE0D2B1A4
:10574000A0F85C10C0F880102222C267026893683B
:1057500043F0010393608268A24201D102699AB1C9
:105760000A4A426680F874100068016841F490713A
:105770000160002010BD02691AB17F22A0F85C20F0
:10578000E0E7A0F85C30DDE7014AEAE7D55400081D
:1057900059540008816F212910D1B0F8521071B10D
:1057A000C16C02680988C1F308011185C16C891CAC
:1057B000C164B0F85210491EA0F852107047016839
:1057C0000A6822F080020A600068016841F0400126
:1057D00001607047816F21290ED1B0F8521061B17C
:1057E000C16C026809781185C16C491CC164B0F8AC
:1057F0005210491EA0F85210704701680A6822F042
:1058000080020A600068016841F040010160704751
:105810002DE9F0479A4617460E4604464FF0000918
:105820004FF02008089D39E0681C37D0FCF754FC85
:10583000A0EB0A00A84222D80DB3206801684907EE
:105840002CD5C069C043000528D421684FF40060FE
:1058500008622068016821F4D071016020688168C5
:1058600021F001018160C4F87880C4F87C80C4F81C
:10587000808000BF84F874900320BDE8F087206822
:10588000016821F4D07101602068816821F0010174
:105890008160C4F87880C4F87C80EBE72068C06938
:1058A00036EA000004D00020B842BDD00020E4E772
:1058B0000120F9E70148FEF7FBBA00008C520020F6
:1058C0002DE9F041D0F8C032D0F8B822CAB101EBCE
:1058D000810500EB85040026E7693FB103EBC503B2
:1058E0009B6BB7FBF3F503FB157323B1C2F814628E
:1058F0000020BDE8F08100231A46E66100F07FFC3D
:10590000F6E70220F5E770B50546D0F8B84200F09A
:105910007AFBC4F80C02D5F8B80248B1D5F8BC122D
:10592000D4F80402CA6804F503719047002070BDE2
:10593000022070BD70B504460026812100F0B6FA41
:10594000002501212046E56200F0B0FA82212046C0
:10595000C4F86C5100F0AAFA2564D4F8B80248B132
:10596000D4F8BC0204F52E7440688047206800F02B
:1059700016FE2560304670BD10B5D0E9AE4159B174
:1059800094F80002FF2807D08B6894F80122214682
:105990009847FF2084F80002002010BD0A210180F2
:1059A00000487047580000104321018000487047AC
:1059B000A8000010432101800048704764000010D7
:1059C0004321018000487047EC0000102DE9F041B0
:1059D00004460026007C4FF40077012590B3402355
:1059E00002228121204600F063FB4023E56202226F
:1059F0000121204600F05CFB08230322822120467F
:105A0000C4F86C5100F054FB4FF40770256400F0AB
:105A1000C7FDC4F8B802F8B10546D4F8BC02006866
:105A200080470020C5F81402C5F81802207CD5F87C
:105A3000042298B140230121204600F045FB304666
:105A4000BDE8F081FFE73B4602228121204600F0BD
:105A50002FFB3B46E562CAE70126F0E73B46EAE753
:105A600010B5D0F8B81269B1027C002AD1F804222E
:105A700005D04023012100F027FB002010BD4FF48A
:105A80000073F7E7022010BD02460220002902D071
:105A90000020C2F8BC127047D0F8B802C0F8041257
:105AA00000207047D0F8B802C0F81022C0F80812E1
:105AB000002070472DE9FC410546D0F8B87200205F
:105AC0008DF80000ADF80400064608780C4610F08A
:105AD000600121D020293BD1E288AAB1000660787C
